{
  "_format": "hh-sol-artifact-1",
  "contractName": "Twitter",
  "sourceName": "contracts/Twitter.sol",
  "abi": [
    {
      "anonymous": false,
      "inputs": [
        {
          "indexed": false,
          "internalType": "address",
          "name": "recipient",
          "type": "address"
        },
        {
          "indexed": false,
          "internalType": "uint256",
          "name": "tweetId",
          "type": "uint256"
        }
      ],
      "name": "CreateTweet",
      "type": "event"
    },
    {
      "anonymous": false,
      "inputs": [
        {
          "indexed": false,
          "internalType": "uint256",
          "name": "tweetId",
          "type": "uint256"
        },
        {
          "indexed": false,
          "internalType": "bool",
          "name": "isDeleted",
          "type": "bool"
        }
      ],
      "name": "DeleteTweet",
      "type": "event"
    },
    {
      "anonymous": false,
      "inputs": [
        {
          "indexed": false,
          "internalType": "uint256",
          "name": "tweetId",
          "type": "uint256"
        },
        {
          "indexed": false,
          "internalType": "string",
          "name": "tweetText",
          "type": "string"
        }
      ],
      "name": "UpdateTweet",
      "type": "event"
    },
    {
      "inputs": [
        {
          "internalType": "string",
          "name": "_tweetText",
          "type": "string"
        },
        {
          "internalType": "bool",
          "name": "_isDeleted",
          "type": "bool"
        }
      ],
      "name": "createTweet",
      "outputs": [],
      "stateMutability": "nonpayable",
      "type": "function"
    },
    {
      "inputs": [
        {
          "internalType": "uint256",
          "name": "_tweetId",
          "type": "uint256"
        }
      ],
      "name": "deleteTweet",
      "outputs": [],
      "stateMutability": "nonpayable",
      "type": "function"
    },
    {
      "inputs": [],
      "name": "readTweets",
      "outputs": [
        {
          "components": [
            {
              "internalType": "uint256",
              "name": "id",
              "type": "uint256"
            },
            {
              "internalType": "address",
              "name": "userName",
              "type": "address"
            },
            {
              "internalType": "string",
              "name": "tweetText",
              "type": "string"
            },
            {
              "internalType": "bool",
              "name": "isDeleted",
              "type": "bool"
            }
          ],
          "internalType": "struct Twitter.Tweet[]",
          "name": "",
          "type": "tuple[]"
        }
      ],
      "stateMutability": "view",
      "type": "function"
    },
    {
      "inputs": [
        {
          "internalType": "uint256",
          "name": "_tweetId",
          "type": "uint256"
        },
        {
          "internalType": "string",
          "name": "_tweetText",
          "type": "string"
        }
      ],
      "name": "updateTweet",
      "outputs": [],
      "stateMutability": "nonpayable",
      "type": "function"
    }
  ],
  "bytecode": "0x608060405234801561001057600080fd5b50611152806100206000396000f3fe608060405234801561001057600080fd5b506004361061004c5760003560e01c80635775912a146100515780637c0aa77a1461006d578063f3c6a42b14610089578063f5c83a2e146100a7575b600080fd5b61006b60048036038101906100669190610ae5565b6100c3565b005b61008760048036038101906100829190610b0e565b610204565b005b610091610341565b60405161009e9190610d66565b60405180910390f35b6100c160048036038101906100bc9190610a91565b61072e565b005b3373ffffffffffffffffffffffffffffffffffffffff1660008083815260200190815260200160002060009054906101000a900473ffffffffffffffffffffffffffffffffffffffff1673ffffffffffffffffffffffffffffffffffffffff1614610163576040517f08c379a000000000000000000000000000000000000000000000000000000000815260040161015a90610d88565b60405180910390fd5b60016002828154811061019f577f4e487b7100000000000000000000000000000000000000000000000000000000600052603260045260246000fd5b906000526020600020906004020160030160006101000a81548160ff0219169083151502179055507f2430f837dd2fb40e08c064be9db3d0cf2a7a21f8fe716a2a41787dafc66a7e2a8160016040516101f9929190610da8565b60405180910390a150565b3373ffffffffffffffffffffffffffffffffffffffff1660008084815260200190815260200160002060009054906101000a900473ffffffffffffffffffffffffffffffffffffffff1673ffffffffffffffffffffffffffffffffffffffff16146102a4576040517f08c379a000000000000000000000000000000000000000000000000000000000815260040161029b90610d88565b60405180910390fd5b80600283815481106102df577f4e487b7100000000000000000000000000000000000000000000000000000000600052603260045260246000fd5b9060005260206000209060040201600201908051906020019061030392919061091c565b507fbab363c43e5951d544e10e2a7d849403efb230c033f0502fa4f0bdb54ea913908282604051610335929190610dd1565b60405180910390a15050565b6060600060028054905067ffffffffffffffff81111561038a577f4e487b7100000000000000000000000000000000000000000000000000000000600052604160045260246000fd5b6040519080825280602002602001820160405280156103c357816020015b6103b06109a2565b8152602001906001900390816103a85790505b5090506000805b600280549050811015610602576000151560028281548110610415577f4e487b7100000000000000000000000000000000000000000000000000000000600052603260045260246000fd5b906000526020600020906004020160030160009054906101000a900460ff16151514156105ef5760028181548110610476577f4e487b7100000000000000000000000000000000000000000000000000000000600052603260045260246000fd5b9060005260206000209060040201604051806080016040529081600082015481526020016001820160009054906101000a900473ffffffffffffffffffffffffffffffffffffffff1673ffffffffffffffffffffffffffffffffffffffff1673ffffffffffffffffffffffffffffffffffffffff1681526020016002820180546104ff90610f7b565b80601f016020809104026020016040519081016040528092919081815260200182805461052b90610f7b565b80156105785780601f1061054d57610100808354040283529160200191610578565b820191906000526020600020905b81548152906001019060200180831161055b57829003601f168201915b505050505081526020016003820160009054906101000a900460ff1615151515815250508383815181106105d5577f4e487b7100000000000000000000000000000000000000000000000000000000600052603260045260246000fd5b602002602001018190525081806105eb90610fde565b9250505b80806105fa90610fde565b9150506103ca565b5060008167ffffffffffffffff811115610645577f4e487b7100000000000000000000000000000000000000000000000000000000600052604160045260246000fd5b60405190808252806020026020018201604052801561067e57816020015b61066b6109a2565b8152602001906001900390816106635790505b50905060005b82811015610724578381815181106106c5577f4e487b7100000000000000000000000000000000000000000000000000000000600052603260045260246000fd5b6020026020010151828281518110610706577f4e487b7100000000000000000000000000000000000000000000000000000000600052603260045260246000fd5b6020026020010181905250808061071c90610fde565b915050610684565b5080935050505090565b600060016002805490506107429190610ebd565b9050600260405180608001604052808381526020013373ffffffffffffffffffffffffffffffffffffffff16815260200185815260200184151581525090806001815401808255809150506001900390600052602060002090600402016000909190919091506000820151816000015560208201518160010160006101000a81548173ffffffffffffffffffffffffffffffffffffffff021916908373ffffffffffffffffffffffffffffffffffffffff160217905550604082015181600201908051906020019061081592919061091c565b5060608201518160030160006101000a81548160ff02191690831515021790555050503360008083815260200190815260200160002060006101000a81548173ffffffffffffffffffffffffffffffffffffffff021916908373ffffffffffffffffffffffffffffffffffffffff160217905550600160003373ffffffffffffffffffffffffffffffffffffffff1673ffffffffffffffffffffffffffffffffffffffff16815260200190815260200160002060008154809291906108d990610fde565b91905055507f6b915add1a5c3d0ddd7bfc564aff101c786dc80d204771162fda3552e8c1eef1338260405161090f929190610d3d565b60405180910390a1505050565b82805461092890610f7b565b90600052602060002090601f01602090048101928261094a5760008555610991565b82601f1061096357805160ff1916838001178555610991565b82800160010185558215610991579182015b82811115610990578251825591602001919060010190610975565b5b50905061099e91906109e2565b5090565b604051806080016040528060008152602001600073ffffffffffffffffffffffffffffffffffffffff168152602001606081526020016000151581525090565b5b808211156109fb5760008160009055506001016109e3565b5090565b6000610a12610a0d84610e26565b610e01565b905082815260208101848484011115610a2a57600080fd5b610a35848285610f39565b509392505050565b600081359050610a4c816110ee565b92915050565b600082601f830112610a6357600080fd5b8135610a738482602086016109ff565b91505092915050565b600081359050610a8b81611105565b92915050565b60008060408385031215610aa457600080fd5b600083013567ffffffffffffffff811115610abe57600080fd5b610aca85828601610a52565b9250506020610adb85828601610a3d565b9150509250929050565b600060208284031215610af757600080fd5b6000610b0584828501610a7c565b91505092915050565b60008060408385031215610b2157600080fd5b6000610b2f85828601610a7c565b925050602083013567ffffffffffffffff811115610b4c57600080fd5b610b5885828601610a52565b9150509250929050565b6000610b6e8383610cbc565b905092915050565b610b7f81610ef1565b82525050565b610b8e81610ef1565b82525050565b6000610b9f82610e67565b610ba98185610e8a565b935083602082028501610bbb85610e57565b8060005b85811015610bf75784840389528151610bd88582610b62565b9450610be383610e7d565b925060208a01995050600181019050610bbf565b50829750879550505050505092915050565b610c1281610f03565b82525050565b610c2181610f03565b82525050565b6000610c3282610e72565b610c3c8185610e9b565b9350610c4c818560208601610f48565b610c55816110b4565b840191505092915050565b6000610c6b82610e72565b610c758185610eac565b9350610c85818560208601610f48565b610c8e816110b4565b840191505092915050565b6000610ca6601583610eac565b9150610cb1826110c5565b602082019050919050565b6000608083016000830151610cd46000860182610d1f565b506020830151610ce76020860182610b76565b5060408301518482036040860152610cff8282610c27565b9150506060830151610d146060860182610c09565b508091505092915050565b610d2881610f2f565b82525050565b610d3781610f2f565b82525050565b6000604082019050610d526000830185610b85565b610d5f6020830184610d2e565b9392505050565b60006020820190508181036000830152610d808184610b94565b905092915050565b60006020820190508181036000830152610da181610c99565b9050919050565b6000604082019050610dbd6000830185610d2e565b610dca6020830184610c18565b9392505050565b6000604082019050610de66000830185610d2e565b8181036020830152610df88184610c60565b90509392505050565b6000610e0b610e1c565b9050610e178282610fad565b919050565b6000604051905090565b600067ffffffffffffffff821115610e4157610e40611085565b5b610e4a826110b4565b9050602081019050919050565b6000819050602082019050919050565b600081519050919050565b600081519050919050565b6000602082019050919050565b600082825260208201905092915050565b600082825260208201905092915050565b600082825260208201905092915050565b6000610ec882610f2f565b9150610ed383610f2f565b925082821015610ee657610ee5611027565b5b828203905092915050565b6000610efc82610f0f565b9050919050565b60008115159050919050565b600073ffffffffffffffffffffffffffffffffffffffff82169050919050565b6000819050919050565b82818337600083830152505050565b60005b83811015610f66578082015181840152602081019050610f4b565b83811115610f75576000848401525b50505050565b60006002820490506001821680610f9357607f821691505b60208210811415610fa757610fa6611056565b5b50919050565b610fb6826110b4565b810181811067ffffffffffffffff82111715610fd557610fd4611085565b5b80604052505050565b6000610fe982610f2f565b91507fffffffffffffffffffffffffffffffffffffffffffffffffffffffffffffffff82141561101c5761101b611027565b5b600182019050919050565b7f4e487b7100000000000000000000000000000000000000000000000000000000600052601160045260246000fd5b7f4e487b7100000000000000000000000000000000000000000000000000000000600052602260045260246000fd5b7f4e487b7100000000000000000000000000000000000000000000000000000000600052604160045260246000fd5b6000601f19601f8301169050919050565b7f596f7520617265206e6f7420746865206f776e65720000000000000000000000600082015250565b6110f781610f03565b811461110257600080fd5b50565b61110e81610f2f565b811461111957600080fd5b5056fea2646970667358221220645e28c8db1f05a974fd24b785c98892c8012b5bc1cc19460e33414d2ab33cb264736f6c63430008040033",
  "linkReferences": {},
  "deployedLinkReferences": {}
}